{
  "_format": "hh-sol-artifact-1",
  "contractName": "ManagerRequests",
  "sourceName": "contracts/ManagerRequests.sol",
  "abi": [
    {
      "inputs": [
        {
          "internalType": "address",
          "name": "_governanceTokenAddress",
          "type": "address"
        },
        {
          "internalType": "uint256",
          "name": "_tokenFee",
          "type": "uint256"
        }
      ],
      "stateMutability": "nonpayable",
      "type": "constructor"
    },
    {
      "anonymous": false,
      "inputs": [
        {
          "indexed": false,
          "internalType": "uint256",
          "name": "amount",
          "type": "uint256"
        }
      ],
      "name": "FeeChanged",
      "type": "event"
    },
    {
      "anonymous": false,
      "inputs": [
        {
          "indexed": true,
          "internalType": "address",
          "name": "previousOwner",
          "type": "address"
        },
        {
          "indexed": true,
          "internalType": "address",
          "name": "newOwner",
          "type": "address"
        }
      ],
      "name": "OwnershipTransferred",
      "type": "event"
    },
    {
      "anonymous": false,
      "inputs": [
        {
          "indexed": false,
          "internalType": "uint256",
          "name": "id",
          "type": "uint256"
        },
        {
          "indexed": false,
          "internalType": "address",
          "name": "customer",
          "type": "address"
        },
        {
          "indexed": false,
          "internalType": "uint256",
          "name": "date",
          "type": "uint256"
        }
      ],
      "name": "RequestCreated",
      "type": "event"
    },
    {
      "anonymous": false,
      "inputs": [
        {
          "indexed": false,
          "internalType": "uint256",
          "name": "id",
          "type": "uint256"
        },
        {
          "indexed": false,
          "internalType": "address",
          "name": "customer",
          "type": "address"
        },
        {
          "indexed": false,
          "internalType": "uint256",
          "name": "date",
          "type": "uint256"
        }
      ],
      "name": "RequestPaid",
      "type": "event"
    },
    {
      "anonymous": false,
      "inputs": [
        {
          "indexed": true,
          "internalType": "address",
          "name": "customer",
          "type": "address"
        },
        {
          "indexed": false,
          "internalType": "uint256",
          "name": "amount",
          "type": "uint256"
        }
      ],
      "name": "TokensCharged",
      "type": "event"
    },
    {
      "inputs": [
        {
          "internalType": "address payable",
          "name": "seller",
          "type": "address"
        },
        {
          "internalType": "string[]",
          "name": "_products",
          "type": "string[]"
        },
        {
          "internalType": "uint256[]",
          "name": "_quantities",
          "type": "uint256[]"
        },
        {
          "internalType": "uint256[]",
          "name": "_valuesProducts",
          "type": "uint256[]"
        }
      ],
      "name": "createRequest",
      "outputs": [],
      "stateMutability": "nonpayable",
      "type": "function"
    },
    {
      "inputs": [
        {
          "internalType": "uint256",
          "name": "_requestId",
          "type": "uint256"
        }
      ],
      "name": "getRequest",
      "outputs": [
        {
          "internalType": "uint256",
          "name": "id",
          "type": "uint256"
        },
        {
          "internalType": "address payable",
          "name": "seller",
          "type": "address"
        },
        {
          "internalType": "address payable",
          "name": "customer",
          "type": "address"
        },
        {
          "internalType": "uint256",
          "name": "date",
          "type": "uint256"
        },
        {
          "internalType": "string[]",
          "name": "products",
          "type": "string[]"
        },
        {
          "internalType": "uint256[]",
          "name": "quantities",
          "type": "uint256[]"
        },
        {
          "internalType": "uint256[]",
          "name": "valuesProducts",
          "type": "uint256[]"
        },
        {
          "internalType": "bool",
          "name": "paid",
          "type": "bool"
        }
      ],
      "stateMutability": "view",
      "type": "function"
    },
    {
      "inputs": [
        {
          "internalType": "address",
          "name": "seller",
          "type": "address"
        }
      ],
      "name": "getRequestsBySeller",
      "outputs": [
        {
          "internalType": "uint256[]",
          "name": "",
          "type": "uint256[]"
        }
      ],
      "stateMutability": "view",
      "type": "function"
    },
    {
      "inputs": [],
      "name": "governanceTokenAddress",
      "outputs": [
        {
          "internalType": "address",
          "name": "",
          "type": "address"
        }
      ],
      "stateMutability": "view",
      "type": "function"
    },
    {
      "inputs": [],
      "name": "owner",
      "outputs": [
        {
          "internalType": "address",
          "name": "",
          "type": "address"
        }
      ],
      "stateMutability": "view",
      "type": "function"
    },
    {
      "inputs": [
        {
          "internalType": "uint256",
          "name": "requestId",
          "type": "uint256"
        }
      ],
      "name": "payRequest",
      "outputs": [],
      "stateMutability": "nonpayable",
      "type": "function"
    },
    {
      "inputs": [],
      "name": "renounceOwnership",
      "outputs": [],
      "stateMutability": "nonpayable",
      "type": "function"
    },
    {
      "inputs": [
        {
          "internalType": "uint256",
          "name": "amount",
          "type": "uint256"
        }
      ],
      "name": "setFee",
      "outputs": [],
      "stateMutability": "nonpayable",
      "type": "function"
    },
    {
      "inputs": [],
      "name": "tokenFee",
      "outputs": [
        {
          "internalType": "uint256",
          "name": "",
          "type": "uint256"
        }
      ],
      "stateMutability": "view",
      "type": "function"
    },
    {
      "inputs": [
        {
          "internalType": "address",
          "name": "newOwner",
          "type": "address"
        }
      ],
      "name": "transferOwnership",
      "outputs": [],
      "stateMutability": "nonpayable",
      "type": "function"
    }
  ],
  "bytecode": "0x608060405234801561001057600080fd5b5060405161153a38038061153a83398101604081905261002f9161010b565b610038336100bb565b6001600160a01b0382166100925760405162461bcd60e51b815260206004820152601c60248201527f546f6b656e20616464726573732063616e6e6f74206265207a65726f00000000604482015260640160405180910390fd5b600480546001600160a01b0319166001600160a01b039390931692909217909155600555610145565b600080546001600160a01b038381166001600160a01b0319831681178455604051919092169283917f8be0079c531659141344cd1fd0a4f28419497f9722a3daafe3b4186f6b6457e09190a35050565b6000806040838503121561011e57600080fd5b82516001600160a01b038116811461013557600080fd5b6020939093015192949293505050565b6113e6806101546000396000f3fe608060405234801561001057600080fd5b506004361061009e5760003560e01c8063a2f5df5f11610066578063a2f5df5f14610114578063b42165d014610127578063c58343ef1461013a578063cfee8a8514610161578063f2fde38b1461018157600080fd5b806345599136146100a357806363d4dd3b146100bf57806369fe0e2d146100d4578063715018a6146100e75780638da5cb5b146100ef575b600080fd5b6100ac60055481565b6040519081526020015b60405180910390f35b6100d26100cd366004610de7565b610194565b005b6100d26100e2366004610de7565b6104be565b6100d2610501565b6000546001600160a01b03165b6040516001600160a01b0390911681526020016100b6565b6100d2610122366004610eeb565b610515565b6004546100fc906001600160a01b031681565b61014d610148366004610de7565b6107dc565b6040516100b6989796959493929190611085565b61017461016f366004611180565b610a09565b6040516100b691906111a4565b6100d261018f366004611180565b610a75565b600081815260026020526040812080549091036101f15760405162461bcd60e51b815260206004820152601660248201527514995c5d595cdd08191bd95cc81b9bdd08195e1a5cdd60521b60448201526064015b60405180910390fd5b600781015460ff161561023d5760405162461bcd60e51b815260206004820152601460248201527314995c5d595cdd08185b1c9958591e481c185a5960621b60448201526064016101e8565b60028101546001600160a01b0316331461028c5760405162461bcd60e51b815260206004820152601060248201526f2737ba103a34329031bab9ba37b6b2b960811b60448201526064016101e8565b6000805b6004830154811015610304578260060181815481106102b1576102b16111b7565b90600052602060002001548360050182815481106102d1576102d16111b7565b90600052602060002001546102e691906111e3565b6102f09083611200565b9150806102fc81611213565b915050610290565b5061031781670de0b6b3a76400006111e3565b60048054604051636eb1769f60e11b815233928101929092523060248301529192506000916001600160a01b03169063dd62ed3e90604401602060405180830381865afa15801561036c573d6000803e3d6000fd5b505050506040513d601f19601f82011682018060405250810190610390919061122c565b9050818110156103db5760405162461bcd60e51b8152602060048201526016602482015275496e73756666696369656e7420616c6c6f77616e636560501b60448201526064016101e8565b6004805460018501546040516323b872dd60e01b815233938101939093526001600160a01b0390811660248401526044830185905216906323b872dd906064016020604051808303816000875af115801561043a573d6000803e3d6000fd5b505050506040513d601f19601f8201168201806040525081019061045e9190611245565b50610467610aee565b60078301805460ff1916600117905560408051858152336020820152429181018290527fd5ac7a9a768c1aeccbb2f6af8f8b15cde55cd964b47d640e221661dd53bc229b9060600160405180910390a15050505050565b6104c6610c34565b60058190556040518181527f6bbc57480a46553fa4d156ce702beef5f3ad66303b0ed1a5d4cb44966c6584c39060200160405180910390a150565b610509610c34565b6105136000610c8e565b565b6004546001600160a01b03166105655760405162461bcd60e51b8152602060048201526015602482015274151bdad95b881859191c995cdcc81b9bdd081cd95d605a1b60448201526064016101e8565b600554600480546040516370a0823160e01b815233928101929092526001600160a01b0316906370a0823190602401602060405180830381865afa1580156105b1573d6000803e3d6000fd5b505050506040513d601f19601f820116820180604052508101906105d5919061122c565b10156106195760405162461bcd60e51b8152602060048201526013602482015272496e73756666696369656e7420746f6b656e7360681b60448201526064016101e8565b8151835114801561062b575080518251145b61066f5760405162461bcd60e51b8152602060048201526015602482015274496e76616c696420696e707574206c656e6774687360581b60448201526064016101e8565b61067d600180546001019055565b600061068860015490565b60008181526002602081815260409092208381556001810180546001600160a01b038b166001600160a01b03199182161790915591810180549092163317909155426003820181905587519394509290916106ea916004840191890190610cde565b5084516107009060058301906020880190610d34565b5083516107169060068301906020870190610d34565b5060078101805460ff1916905561072b610aee565b6001600160a01b0387166000908152600360209081526040808320805460018101825590845292829020909201859055815185815233918101919091529081018390527f0f07843fcc5047a6c0a2af35eec5eab563fa21efdc4473efb2303d6c2f8ec6f89060600160405180910390a160055460405190815233907f7fb2778aa5a297055d621e0d905ba831db6687c61ba1f33caabc4fded441a8749060200160405180910390a250505050505050565b600081815260026020526040812080548291829182916060918291829185919082036108435760405162461bcd60e51b815260206004820152601660248201527514995c5d595cdd08191bd95cc81b9bdd08195e1a5cdd60521b60448201526064016101e8565b805460018201546002830154600384015460048501805460408051602080840282018101909252828152969f506001600160a01b039586169e50949093169b509099509160009084015b828210156109395783829060005260206000200180546108ac90611267565b80601f01602080910402602001604051908101604052809291908181526020018280546108d890611267565b80156109255780601f106108fa57610100808354040283529160200191610925565b820191906000526020600020905b81548152906001019060200180831161090857829003601f168201915b50505050508152602001906001019061088d565b5050505094508060050180548060200260200160405190810160405280929190818152602001828054801561098d57602002820191906000526020600020905b815481526020019060010190808311610979575b50505050509350806006018054806020026020016040519081016040528092919081815260200182805480156109e257602002820191906000526020600020905b8154815260200190600101908083116109ce575b505050505092508060070160009054906101000a900460ff16915050919395975091939597565b6001600160a01b038116600090815260036020908152604091829020805483518184028101840190945280845260609392830182828015610a6957602002820191906000526020600020905b815481526020019060010190808311610a55575b50505050509050919050565b610a7d610c34565b6001600160a01b038116610ae25760405162461bcd60e51b815260206004820152602660248201527f4f776e61626c653a206e6577206f776e657220697320746865207a65726f206160448201526564647265737360d01b60648201526084016101e8565b610aeb81610c8e565b50565b60048054604051636eb1769f60e11b815233928101929092523060248301526000916001600160a01b039091169063dd62ed3e90604401602060405180830381865afa158015610b42573d6000803e3d6000fd5b505050506040513d601f19601f82011682018060405250810190610b66919061122c565b9050600554811015610bb35760405162461bcd60e51b8152602060048201526016602482015275496e73756666696369656e7420616c6c6f77616e636560501b60448201526064016101e8565b600480546005546040516323b872dd60e01b8152339381019390935230602484015260448301526001600160a01b0316906323b872dd906064016020604051808303816000875af1158015610c0c573d6000803e3d6000fd5b505050506040513d601f19601f82011682018060405250810190610c309190611245565b5050565b6000546001600160a01b031633146105135760405162461bcd60e51b815260206004820181905260248201527f4f776e61626c653a2063616c6c6572206973206e6f7420746865206f776e657260448201526064016101e8565b600080546001600160a01b038381166001600160a01b0319831681178455604051919092169283917f8be0079c531659141344cd1fd0a4f28419497f9722a3daafe3b4186f6b6457e09190a35050565b828054828255906000526020600020908101928215610d24579160200282015b82811115610d245782518290610d1490826112f0565b5091602001919060010190610cfe565b50610d30929150610d7b565b5090565b828054828255906000526020600020908101928215610d6f579160200282015b82811115610d6f578251825591602001919060010190610d54565b50610d30929150610d98565b80821115610d30576000610d8f8282610dad565b50600101610d7b565b5b80821115610d305760008155600101610d99565b508054610db990611267565b6000825580601f10610dc9575050565b601f016020900490600052602060002090810190610aeb9190610d98565b600060208284031215610df957600080fd5b5035919050565b6001600160a01b0381168114610aeb57600080fd5b634e487b7160e01b600052604160045260246000fd5b604051601f8201601f1916810167ffffffffffffffff81118282101715610e5457610e54610e15565b604052919050565b600067ffffffffffffffff821115610e7657610e76610e15565b5060051b60200190565b600082601f830112610e9157600080fd5b81356020610ea6610ea183610e5c565b610e2b565b82815260059290921b84018101918181019086841115610ec557600080fd5b8286015b84811015610ee05780358352918301918301610ec9565b509695505050505050565b60008060008060808587031215610f0157600080fd5b8435610f0c81610e00565b935060208581013567ffffffffffffffff80821115610f2a57600080fd5b818801915088601f830112610f3e57600080fd5b8135610f4c610ea182610e5c565b81815260059190911b8301840190848101908b831115610f6b57600080fd5b8585015b83811015610ff557803585811115610f8657600080fd5b8601603f81018e13610f9757600080fd5b8781013586811115610fab57610fab610e15565b610fbd601f8201601f19168a01610e2b565b8181528f6040838501011115610fd35760008081fd5b81604084018b83013760009181018a0191909152845250918601918601610f6f565b5097505050604088013592508083111561100e57600080fd5b61101a89848a01610e80565b9450606088013592508083111561103057600080fd5b505061103e87828801610e80565b91505092959194509250565b600081518084526020808501945080840160005b8381101561107a5781518752958201959082019060010161105e565b509495945050505050565b8881526001600160a01b0388811660208084019190915290881660408301526060820187905261010060808301819052865190830181905260009161012080850192600581901b8601909101919089820185805b838110156111365788860361011f1901875282518051808852835b8181101561110f5782810188015189820189015287016110f4565b50878101870184905297860197601f01601f191690960185019550918401916001016110d9565b505050505083810360a085015261114d818861104a565b91505082810360c0840152611162818661104a565b91505061117360e083018415159052565b9998505050505050505050565b60006020828403121561119257600080fd5b813561119d81610e00565b9392505050565b60208152600061119d602083018461104a565b634e487b7160e01b600052603260045260246000fd5b634e487b7160e01b600052601160045260246000fd5b80820281158282048414176111fa576111fa6111cd565b92915050565b808201808211156111fa576111fa6111cd565b600060018201611225576112256111cd565b5060010190565b60006020828403121561123e57600080fd5b5051919050565b60006020828403121561125757600080fd5b8151801515811461119d57600080fd5b600181811c9082168061127b57607f821691505b60208210810361129b57634e487b7160e01b600052602260045260246000fd5b50919050565b601f8211156112eb57600081815260208120601f850160051c810160208610156112c85750805b601f850160051c820191505b818110156112e7578281556001016112d4565b5050505b505050565b815167ffffffffffffffff81111561130a5761130a610e15565b61131e816113188454611267565b846112a1565b602080601f831160018114611353576000841561133b5750858301515b600019600386901b1c1916600185901b1785556112e7565b600085815260208120601f198616915b8281101561138257888601518255948401946001909101908401611363565b50858210156113a05787850151600019600388901b60f8161c191681555b5050505050600190811b0190555056fea2646970667358221220d5d5515c298c7de52f7c3edc97116e022b271f3fd3cac61a6b480d13fc486c3764736f6c63430008120033",
  "linkReferences": {},
  "deployedLinkReferences": {}
}