{
  "_format": "hh-sol-artifact-1",
  "contractName": "GovernanceToken",
  "sourceName": "contracts/GovernanceToken.sol",
  "abi": [
    {
      "inputs": [
        {
          "internalType": "address",
          "name": "deployer",
          "type": "address"
        }
      ],
      "stateMutability": "nonpayable",
      "type": "constructor"
    },
    {
      "inputs": [],
      "name": "InvalidShortString",
      "type": "error"
    },
    {
      "inputs": [
        {
          "internalType": "string",
          "name": "str",
          "type": "string"
        }
      ],
      "name": "StringTooLong",
      "type": "error"
    },
    {
      "anonymous": false,
      "inputs": [
        {
          "indexed": true,
          "internalType": "address",
          "name": "owner",
          "type": "address"
        },
        {
          "indexed": true,
          "internalType": "address",
          "name": "spender",
          "type": "address"
        },
        {
          "indexed": false,
          "internalType": "uint256",
          "name": "value",
          "type": "uint256"
        }
      ],
      "name": "Approval",
      "type": "event"
    },
    {
      "anonymous": false,
      "inputs": [
        {
          "indexed": true,
          "internalType": "address",
          "name": "delegator",
          "type": "address"
        },
        {
          "indexed": true,
          "internalType": "address",
          "name": "fromDelegate",
          "type": "address"
        },
        {
          "indexed": true,
          "internalType": "address",
          "name": "toDelegate",
          "type": "address"
        }
      ],
      "name": "DelegateChanged",
      "type": "event"
    },
    {
      "anonymous": false,
      "inputs": [
        {
          "indexed": true,
          "internalType": "address",
          "name": "delegate",
          "type": "address"
        },
        {
          "indexed": false,
          "internalType": "uint256",
          "name": "previousBalance",
          "type": "uint256"
        },
        {
          "indexed": false,
          "internalType": "uint256",
          "name": "newBalance",
          "type": "uint256"
        }
      ],
      "name": "DelegateVotesChanged",
      "type": "event"
    },
    {
      "anonymous": false,
      "inputs": [],
      "name": "EIP712DomainChanged",
      "type": "event"
    },
    {
      "anonymous": false,
      "inputs": [
        {
          "indexed": true,
          "internalType": "address",
          "name": "previousOwner",
          "type": "address"
        },
        {
          "indexed": true,
          "internalType": "address",
          "name": "newOwner",
          "type": "address"
        }
      ],
      "name": "OwnershipTransferred",
      "type": "event"
    },
    {
      "anonymous": false,
      "inputs": [
        {
          "indexed": true,
          "internalType": "address",
          "name": "from",
          "type": "address"
        },
        {
          "indexed": true,
          "internalType": "address",
          "name": "to",
          "type": "address"
        },
        {
          "indexed": false,
          "internalType": "uint256",
          "name": "value",
          "type": "uint256"
        }
      ],
      "name": "Transfer",
      "type": "event"
    },
    {
      "inputs": [],
      "name": "CLOCK_MODE",
      "outputs": [
        {
          "internalType": "string",
          "name": "",
          "type": "string"
        }
      ],
      "stateMutability": "view",
      "type": "function"
    },
    {
      "inputs": [],
      "name": "DOMAIN_SEPARATOR",
      "outputs": [
        {
          "internalType": "bytes32",
          "name": "",
          "type": "bytes32"
        }
      ],
      "stateMutability": "view",
      "type": "function"
    },
    {
      "inputs": [
        {
          "internalType": "address",
          "name": "owner",
          "type": "address"
        },
        {
          "internalType": "address",
          "name": "spender",
          "type": "address"
        }
      ],
      "name": "allowance",
      "outputs": [
        {
          "internalType": "uint256",
          "name": "",
          "type": "uint256"
        }
      ],
      "stateMutability": "view",
      "type": "function"
    },
    {
      "inputs": [
        {
          "internalType": "address",
          "name": "spender",
          "type": "address"
        },
        {
          "internalType": "uint256",
          "name": "amount",
          "type": "uint256"
        }
      ],
      "name": "approve",
      "outputs": [
        {
          "internalType": "bool",
          "name": "",
          "type": "bool"
        }
      ],
      "stateMutability": "nonpayable",
      "type": "function"
    },
    {
      "inputs": [
        {
          "internalType": "address",
          "name": "account",
          "type": "address"
        }
      ],
      "name": "balanceOf",
      "outputs": [
        {
          "internalType": "uint256",
          "name": "",
          "type": "uint256"
        }
      ],
      "stateMutability": "view",
      "type": "function"
    },
    {
      "inputs": [
        {
          "internalType": "address",
          "name": "account",
          "type": "address"
        },
        {
          "internalType": "uint32",
          "name": "pos",
          "type": "uint32"
        }
      ],
      "name": "checkpoints",
      "outputs": [
        {
          "components": [
            {
              "internalType": "uint32",
              "name": "fromBlock",
              "type": "uint32"
            },
            {
              "internalType": "uint224",
              "name": "votes",
              "type": "uint224"
            }
          ],
          "internalType": "struct ERC20Votes.Checkpoint",
          "name": "",
          "type": "tuple"
        }
      ],
      "stateMutability": "view",
      "type": "function"
    },
    {
      "inputs": [],
      "name": "clock",
      "outputs": [
        {
          "internalType": "uint48",
          "name": "",
          "type": "uint48"
        }
      ],
      "stateMutability": "view",
      "type": "function"
    },
    {
      "inputs": [],
      "name": "decimals",
      "outputs": [
        {
          "internalType": "uint8",
          "name": "",
          "type": "uint8"
        }
      ],
      "stateMutability": "view",
      "type": "function"
    },
    {
      "inputs": [
        {
          "internalType": "address",
          "name": "spender",
          "type": "address"
        },
        {
          "internalType": "uint256",
          "name": "subtractedValue",
          "type": "uint256"
        }
      ],
      "name": "decreaseAllowance",
      "outputs": [
        {
          "internalType": "bool",
          "name": "",
          "type": "bool"
        }
      ],
      "stateMutability": "nonpayable",
      "type": "function"
    },
    {
      "inputs": [
        {
          "internalType": "address",
          "name": "delegatee",
          "type": "address"
        }
      ],
      "name": "delegate",
      "outputs": [],
      "stateMutability": "nonpayable",
      "type": "function"
    },
    {
      "inputs": [
        {
          "internalType": "address",
          "name": "delegatee",
          "type": "address"
        },
        {
          "internalType": "uint256",
          "name": "nonce",
          "type": "uint256"
        },
        {
          "internalType": "uint256",
          "name": "expiry",
          "type": "uint256"
        },
        {
          "internalType": "uint8",
          "name": "v",
          "type": "uint8"
        },
        {
          "internalType": "bytes32",
          "name": "r",
          "type": "bytes32"
        },
        {
          "internalType": "bytes32",
          "name": "s",
          "type": "bytes32"
        }
      ],
      "name": "delegateBySig",
      "outputs": [],
      "stateMutability": "nonpayable",
      "type": "function"
    },
    {
      "inputs": [
        {
          "internalType": "address",
          "name": "account",
          "type": "address"
        }
      ],
      "name": "delegates",
      "outputs": [
        {
          "internalType": "address",
          "name": "",
          "type": "address"
        }
      ],
      "stateMutability": "view",
      "type": "function"
    },
    {
      "inputs": [],
      "name": "eip712Domain",
      "outputs": [
        {
          "internalType": "bytes1",
          "name": "fields",
          "type": "bytes1"
        },
        {
          "internalType": "string",
          "name": "name",
          "type": "string"
        },
        {
          "internalType": "string",
          "name": "version",
          "type": "string"
        },
        {
          "internalType": "uint256",
          "name": "chainId",
          "type": "uint256"
        },
        {
          "internalType": "address",
          "name": "verifyingContract",
          "type": "address"
        },
        {
          "internalType": "bytes32",
          "name": "salt",
          "type": "bytes32"
        },
        {
          "internalType": "uint256[]",
          "name": "extensions",
          "type": "uint256[]"
        }
      ],
      "stateMutability": "view",
      "type": "function"
    },
    {
      "inputs": [
        {
          "internalType": "uint256",
          "name": "timepoint",
          "type": "uint256"
        }
      ],
      "name": "getPastTotalSupply",
      "outputs": [
        {
          "internalType": "uint256",
          "name": "",
          "type": "uint256"
        }
      ],
      "stateMutability": "view",
      "type": "function"
    },
    {
      "inputs": [
        {
          "internalType": "address",
          "name": "account",
          "type": "address"
        },
        {
          "internalType": "uint256",
          "name": "timepoint",
          "type": "uint256"
        }
      ],
      "name": "getPastVotes",
      "outputs": [
        {
          "internalType": "uint256",
          "name": "",
          "type": "uint256"
        }
      ],
      "stateMutability": "view",
      "type": "function"
    },
    {
      "inputs": [
        {
          "internalType": "address",
          "name": "account",
          "type": "address"
        }
      ],
      "name": "getVotes",
      "outputs": [
        {
          "internalType": "uint256",
          "name": "",
          "type": "uint256"
        }
      ],
      "stateMutability": "view",
      "type": "function"
    },
    {
      "inputs": [
        {
          "internalType": "address",
          "name": "spender",
          "type": "address"
        },
        {
          "internalType": "uint256",
          "name": "addedValue",
          "type": "uint256"
        }
      ],
      "name": "increaseAllowance",
      "outputs": [
        {
          "internalType": "bool",
          "name": "",
          "type": "bool"
        }
      ],
      "stateMutability": "nonpayable",
      "type": "function"
    },
    {
      "inputs": [],
      "name": "name",
      "outputs": [
        {
          "internalType": "string",
          "name": "",
          "type": "string"
        }
      ],
      "stateMutability": "view",
      "type": "function"
    },
    {
      "inputs": [
        {
          "internalType": "address",
          "name": "owner",
          "type": "address"
        }
      ],
      "name": "nonces",
      "outputs": [
        {
          "internalType": "uint256",
          "name": "",
          "type": "uint256"
        }
      ],
      "stateMutability": "view",
      "type": "function"
    },
    {
      "inputs": [
        {
          "internalType": "address",
          "name": "account",
          "type": "address"
        }
      ],
      "name": "numCheckpoints",
      "outputs": [
        {
          "internalType": "uint32",
          "name": "",
          "type": "uint32"
        }
      ],
      "stateMutability": "view",
      "type": "function"
    },
    {
      "inputs": [],
      "name": "owner",
      "outputs": [
        {
          "internalType": "address",
          "name": "",
          "type": "address"
        }
      ],
      "stateMutability": "view",
      "type": "function"
    },
    {
      "inputs": [
        {
          "internalType": "address",
          "name": "owner",
          "type": "address"
        },
        {
          "internalType": "address",
          "name": "spender",
          "type": "address"
        },
        {
          "internalType": "uint256",
          "name": "value",
          "type": "uint256"
        },
        {
          "internalType": "uint256",
          "name": "deadline",
          "type": "uint256"
        },
        {
          "internalType": "uint8",
          "name": "v",
          "type": "uint8"
        },
        {
          "internalType": "bytes32",
          "name": "r",
          "type": "bytes32"
        },
        {
          "internalType": "bytes32",
          "name": "s",
          "type": "bytes32"
        }
      ],
      "name": "permit",
      "outputs": [],
      "stateMutability": "nonpayable",
      "type": "function"
    },
    {
      "inputs": [],
      "name": "renounceOwnership",
      "outputs": [],
      "stateMutability": "nonpayable",
      "type": "function"
    },
    {
      "inputs": [],
      "name": "s_maxSupply",
      "outputs": [
        {
          "internalType": "uint256",
          "name": "",
          "type": "uint256"
        }
      ],
      "stateMutability": "view",
      "type": "function"
    },
    {
      "inputs": [],
      "name": "symbol",
      "outputs": [
        {
          "internalType": "string",
          "name": "",
          "type": "string"
        }
      ],
      "stateMutability": "view",
      "type": "function"
    },
    {
      "inputs": [],
      "name": "totalSupply",
      "outputs": [
        {
          "internalType": "uint256",
          "name": "",
          "type": "uint256"
        }
      ],
      "stateMutability": "view",
      "type": "function"
    },
    {
      "inputs": [
        {
          "internalType": "address",
          "name": "to",
          "type": "address"
        },
        {
          "internalType": "uint256",
          "name": "amount",
          "type": "uint256"
        }
      ],
      "name": "transfer",
      "outputs": [
        {
          "internalType": "bool",
          "name": "",
          "type": "bool"
        }
      ],
      "stateMutability": "nonpayable",
      "type": "function"
    },
    {
      "inputs": [
        {
          "internalType": "address",
          "name": "from",
          "type": "address"
        },
        {
          "internalType": "address",
          "name": "to",
          "type": "address"
        },
        {
          "internalType": "uint256",
          "name": "amount",
          "type": "uint256"
        }
      ],
      "name": "transferFrom",
      "outputs": [
        {
          "internalType": "bool",
          "name": "",
          "type": "bool"
        }
      ],
      "stateMutability": "nonpayable",
      "type": "function"
    },
    {
      "inputs": [
        {
          "internalType": "address",
          "name": "newOwner",
          "type": "address"
        }
      ],
      "name": "transferOwnership",
      "outputs": [],
      "stateMutability": "nonpayable",
      "type": "function"
    }
  ],
  "bytecode": "0x610160604052620000136012600a62000ac7565b62000023906301c9c38062000ad8565b600d553480156200003357600080fd5b506040516200318338038062003183833981016040819052620000569162000af2565b6040518060400160405280600781526020016626bcaa37b5b2b760c91b81525080604051806040016040528060018152602001603160f81b8152506040518060400160405280600f81526020016e23b7bb32b93730b731b2aa37b5b2b760891b8152506040518060400160405280600381526020016211d59560ea1b8152508160039081620000e6919062000bc1565b506004620000f5828262000bc1565b50505062000113600583620001ee60201b62000ccd1790919060201c565b6101205262000130816006620001ee602090811b62000ccd17901c565b61014052815160208084019190912060e052815190820120610100524660a052620001be60e05161010051604080517f8b73c3c69bb8fe3d512ecc4cf759cc79239f7b179b0ffacaa9a75d522b39400f60208201529081019290925260608201524660808201523060a082015260009060c00160405160208183030381529060405280519060200120905090565b60805250503060c05250620001d3336200023e565b620001e781600d546200029060201b60201c565b5062000d2e565b60006020835110156200020e576200020683620002b5565b905062000238565b8262000225836200030160201b62000cfe1760201c565b9062000232908262000bc1565b5060ff90505b92915050565b600c80546001600160a01b038381166001600160a01b0319831681179093556040519116919082907f8be0079c531659141344cd1fd0a4f28419497f9722a3daafe3b4186f6b6457e090600090a35050565b6200029a62000304565b620002b182826200036260201b62000d011760201c565b5050565b600080829050601f81511115620002ec578260405163305a27a960e01b8152600401620002e3919062000c8d565b60405180910390fd5b8051620002f98262000cdd565b179392505050565b90565b600c546001600160a01b03163314620003605760405162461bcd60e51b815260206004820181905260248201527f4f776e61626c653a2063616c6c6572206973206e6f7420746865206f776e65726044820152606401620002e3565b565b6200037982826200041560201b62000d911760201c565b6001600160e01b036200038d620004e28216565b1115620003f65760405162461bcd60e51b815260206004820152603060248201527f4552433230566f7465733a20746f74616c20737570706c79207269736b73206f60448201526f766572666c6f77696e6720766f74657360801b6064820152608401620002e3565b6200040f600b62000e5c620004e860201b1783620004fd565b50505050565b6001600160a01b0382166200046d5760405162461bcd60e51b815260206004820152601f60248201527f45524332303a206d696e7420746f20746865207a65726f2061646472657373006044820152606401620002e3565b806002600082825462000481919062000d02565b90915550506001600160a01b038216600081815260208181526040808320805486019055518481527fddf252ad1be2c89b69c2b068fc378daa952ba7f163c4a11628f55a4df523b3ef910160405180910390a3620002b160008383620006ab565b60025490565b6000620004f6828462000d02565b9392505050565b825460009081908181156200054c5760008781526020902082016000190160408051808201909152905463ffffffff8116825264010000000090046001600160e01b0316602082015262000561565b60408051808201909152600080825260208201525b905080602001516001600160e01b031693506200057f84868860201c565b9250600082118015620005ac575062000597620006c3565b65ffffffffffff16816000015163ffffffff16145b156200060057620005c883620006e060201b62000e681760201c565b60008881526020902083016000190180546001600160e01b03929092166401000000000263ffffffff9092169190911790556200069c565b8660405180604001604052806200063962000620620006c360201b60201c565b65ffffffffffff166200074f60201b62000ed51760201c565b63ffffffff1681526020016200065a86620006e060201b62000e681760201c565b6001600160e01b0390811690915282546001810184556000938452602093849020835194909301519091166401000000000263ffffffff909316929092179101555b5050935093915050565b505050565b620006a6838383620007b660201b62000f3a1760201c565b6000620006db436200080260201b62000f711760201c565b905090565b60006001600160e01b038211156200074b5760405162461bcd60e51b815260206004820152602760248201527f53616665436173743a2076616c756520646f65736e27742066697420696e20326044820152663234206269747360c81b6064820152608401620002e3565b5090565b600063ffffffff8211156200074b5760405162461bcd60e51b815260206004820152602660248201527f53616665436173743a2076616c756520646f65736e27742066697420696e203360448201526532206269747360d01b6064820152608401620002e3565b620007ce838383620006a660201b62000f6c1760201c565b6001600160a01b03838116600090815260096020526040808220548584168352912054620006a6929182169116836200086b565b600065ffffffffffff8211156200074b5760405162461bcd60e51b815260206004820152602660248201527f53616665436173743a2076616c756520646f65736e27742066697420696e203460448201526538206269747360d01b6064820152608401620002e3565b816001600160a01b0316836001600160a01b0316141580156200088e5750600081115b15620006a6576001600160a01b038316156200091b576001600160a01b0383166000908152600a6020908152604082208291620008d89190620009a6901b62000fd81785620004fd565b91509150846001600160a01b031660008051602062003163833981519152838360405162000910929190918252602082015260400190565b60405180910390a250505b6001600160a01b03821615620006a6576001600160a01b0382166000908152600a60209081526040822082916200095f9190620004e8901b62000e5c1785620004fd565b91509150836001600160a01b031660008051602062003163833981519152838360405162000997929190918252602082015260400190565b60405180910390a25050505050565b6000620004f6828462000d18565b634e487b7160e01b600052601160045260246000fd5b600181815b8085111562000a0b578160001904821115620009ef57620009ef620009b4565b80851615620009fd57918102915b93841c9390800290620009cf565b509250929050565b60008262000a245750600162000238565b8162000a335750600062000238565b816001811462000a4c576002811462000a575762000a77565b600191505062000238565b60ff84111562000a6b5762000a6b620009b4565b50506001821b62000238565b5060208310610133831016604e8410600b841016171562000a9c575081810a62000238565b62000aa88383620009ca565b806000190482111562000abf5762000abf620009b4565b029392505050565b6000620004f660ff84168362000a13565b8082028115828204841417620002385762000238620009b4565b60006020828403121562000b0557600080fd5b81516001600160a01b0381168114620004f657600080fd5b634e487b7160e01b600052604160045260246000fd5b600181811c9082168062000b4857607f821691505b60208210810362000b6957634e487b7160e01b600052602260045260246000fd5b50919050565b601f821115620006a657600081815260208120601f850160051c8101602086101562000b985750805b601f850160051c820191505b8181101562000bb95782815560010162000ba4565b505050505050565b81516001600160401b0381111562000bdd5762000bdd62000b1d565b62000bf58162000bee845462000b33565b8462000b6f565b602080601f83116001811462000c2d576000841562000c145750858301515b600019600386901b1c1916600185901b17855562000bb9565b600085815260208120601f198616915b8281101562000c5e5788860151825594840194600190910190840162000c3d565b508582101562000c7d5787850151600019600388901b60f8161c191681555b5050505050600190811b01905550565b600060208083528351808285015260005b8181101562000cbc5785810183015185820160400152820162000c9e565b506000604082860101526040601f19601f8301168501019250505092915050565b8051602080830151919081101562000b695760001960209190910360031b1b16919050565b80820180821115620002385762000238620009b4565b81810381811115620002385762000238620009b4565b60805160a05160c05160e0516101005161012051610140516123da62000d8960003960006107320152600061070701526000611400015260006113d8015260006113330152600061135d0152600061138701526123da6000f3fe608060405234801561001057600080fd5b50600436106101cf5760003560e01c8063715018a6116101045780639ab24eb0116100a2578063d505accf11610071578063d505accf146103ff578063dd62ed3e14610412578063f1127ed814610425578063f2fde38b1461046257600080fd5b80639ab24eb0146103b3578063a457c2d7146103c6578063a9059cbb146103d9578063c3cda520146103ec57600080fd5b80638da5cb5b116100de5780638da5cb5b146103685780638e539e8c1461037957806391ddadf41461038c57806395d89b41146103ab57600080fd5b8063715018a6146103325780637ecebe001461033a57806384b0196e1461034d57600080fd5b80633a46b1a8116101715780635c19a95c1161014b5780635c19a95c146102c35780635d641847146102d85780636fcfff45146102e157806370a082311461030957600080fd5b80633a46b1a8146102645780634bf5d7e914610277578063587cde1e1461027f57600080fd5b806323b872dd116101ad57806323b872dd14610227578063313ce5671461023a5780633644e51514610249578063395093511461025157600080fd5b806306fdde03146101d4578063095ea7b3146101f257806318160ddd14610215575b600080fd5b6101dc610475565b6040516101e99190611ee3565b60405180910390f35b610205610200366004611f12565b610507565b60405190151581526020016101e9565b6002545b6040519081526020016101e9565b610205610235366004611f3c565b610521565b604051601281526020016101e9565b610219610545565b61020561025f366004611f12565b610554565b610219610272366004611f12565b610576565b6101dc610600565b6102ab61028d366004611f78565b6001600160a01b039081166000908152600960205260409020541690565b6040516001600160a01b0390911681526020016101e9565b6102d66102d1366004611f78565b610698565b005b610219600d5481565b6102f46102ef366004611f78565b6106a5565b60405163ffffffff90911681526020016101e9565b610219610317366004611f78565b6001600160a01b031660009081526020819052604090205490565b6102d66106c7565b610219610348366004611f78565b6106db565b6103556106f9565b6040516101e99796959493929190611f93565b600c546001600160a01b03166102ab565b610219610387366004612029565b610782565b6103946107e9565b60405165ffffffffffff90911681526020016101e9565b6101dc6107f4565b6102196103c1366004611f78565b610803565b6102056103d4366004611f12565b610885565b6102056103e7366004611f12565b610900565b6102d66103fa366004612053565b61090e565b6102d661040d3660046120ab565b610a44565b610219610420366004612115565b610ba8565b610438610433366004612148565b610bd3565b60408051825163ffffffff1681526020928301516001600160e01b031692810192909252016101e9565b6102d6610470366004611f78565b610c57565b60606003805461048490612188565b80601f01602080910402602001604051908101604052809291908181526020018280546104b090612188565b80156104fd5780601f106104d2576101008083540402835291602001916104fd565b820191906000526020600020905b8154815290600101906020018083116104e057829003601f168201915b5050505050905090565b600033610515818585610fe4565b60019150505b92915050565b60003361052f858285611108565b61053a85858561117c565b506001949350505050565b600061054f611326565b905090565b6000336105158185856105678383610ba8565b61057191906121d2565b610fe4565b60006105806107e9565b65ffffffffffff1682106105d75760405162461bcd60e51b815260206004820152601960248201527804552433230566f7465733a20667574757265206c6f6f6b757603c1b60448201526064015b60405180910390fd5b6001600160a01b0383166000908152600a602052604090206105f99083611451565b9392505050565b60604361060b6107e9565b65ffffffffffff16146106605760405162461bcd60e51b815260206004820152601d60248201527f4552433230566f7465733a2062726f6b656e20636c6f636b206d6f646500000060448201526064016105ce565b5060408051808201909152601d81527f6d6f64653d626c6f636b6e756d6265722666726f6d3d64656661756c74000000602082015290565b6106a2338261153a565b50565b6001600160a01b0381166000908152600a602052604081205461051b90610ed5565b6106cf6115b3565b6106d9600061160d565b565b6001600160a01b03811660009081526007602052604081205461051b565b60006060808280808361072d7f0000000000000000000000000000000000000000000000000000000000000000600561165f565b6107587f0000000000000000000000000000000000000000000000000000000000000000600661165f565b60408051600080825260208201909252600f60f81b9b939a50919850469750309650945092509050565b600061078c6107e9565b65ffffffffffff1682106107de5760405162461bcd60e51b815260206004820152601960248201527804552433230566f7465733a20667574757265206c6f6f6b757603c1b60448201526064016105ce565b61051b600b83611451565b600061054f43610f71565b60606004805461048490612188565b6001600160a01b0381166000908152600a60205260408120548015610872576001600160a01b0383166000908152600a6020526040902080546000198301908110610850576108506121fb565b60009182526020909120015464010000000090046001600160e01b0316610875565b60005b6001600160e01b03169392505050565b600033816108938286610ba8565b9050838110156108f35760405162461bcd60e51b815260206004820152602560248201527f45524332303a2064656372656173656420616c6c6f77616e63652062656c6f77604482015264207a65726f60d81b60648201526084016105ce565b61053a8286868403610fe4565b60003361051581858561117c565b8342111561095e5760405162461bcd60e51b815260206004820152601d60248201527f4552433230566f7465733a207369676e6174757265206578706972656400000060448201526064016105ce565b604080517fe48329057bfd03d55e49b547132e39cffd9c1820ad7b9d4c5307691425d15adf60208201526001600160a01b0388169181019190915260608101869052608081018590526000906109d8906109d09060a00160405160208183030381529060405280519060200120611703565b858585611730565b90506109e381611758565b8614610a315760405162461bcd60e51b815260206004820152601960248201527f4552433230566f7465733a20696e76616c6964206e6f6e63650000000000000060448201526064016105ce565b610a3b818861153a565b50505050505050565b83421115610a945760405162461bcd60e51b815260206004820152601d60248201527f45524332305065726d69743a206578706972656420646561646c696e6500000060448201526064016105ce565b60007f6e71edae12b1b97f4d1f60370fef10105fa2faae0126114a169c64845d6126c9888888610ac38c611758565b6040805160208101969096526001600160a01b0394851690860152929091166060840152608083015260a082015260c0810186905260e0016040516020818303038152906040528051906020012090506000610b1e82611703565b90506000610b2e82878787611730565b9050896001600160a01b0316816001600160a01b031614610b915760405162461bcd60e51b815260206004820152601e60248201527f45524332305065726d69743a20696e76616c6964207369676e6174757265000060448201526064016105ce565b610b9c8a8a8a610fe4565b50505050505050505050565b6001600160a01b03918216600090815260016020908152604080832093909416825291909152205490565b60408051808201909152600080825260208201526001600160a01b0383166000908152600a60205260409020805463ffffffff8416908110610c1757610c176121fb565b60009182526020918290206040805180820190915291015463ffffffff8116825264010000000090046001600160e01b0316918101919091529392505050565b610c5f6115b3565b6001600160a01b038116610cc45760405162461bcd60e51b815260206004820152602660248201527f4f776e61626c653a206e6577206f776e657220697320746865207a65726f206160448201526564647265737360d01b60648201526084016105ce565b6106a28161160d565b6000602083511015610ce957610ce283611780565b905061051b565b81610cf4848261225f565b5060ff905061051b565b90565b610d0b8282610d91565b6002546001600160e01b031015610d7d5760405162461bcd60e51b815260206004820152603060248201527f4552433230566f7465733a20746f74616c20737570706c79207269736b73206f60448201526f766572666c6f77696e6720766f74657360801b60648201526084016105ce565b610d8b600b610e5c836117be565b50505050565b6001600160a01b038216610de75760405162461bcd60e51b815260206004820152601f60248201527f45524332303a206d696e7420746f20746865207a65726f20616464726573730060448201526064016105ce565b8060026000828254610df991906121d2565b90915550506001600160a01b038216600081815260208181526040808320805486019055518481527fddf252ad1be2c89b69c2b068fc378daa952ba7f163c4a11628f55a4df523b3ef910160405180910390a3610e5860008383611933565b5050565b60006105f982846121d2565b60006001600160e01b03821115610ed15760405162461bcd60e51b815260206004820152602760248201527f53616665436173743a2076616c756520646f65736e27742066697420696e20326044820152663234206269747360c81b60648201526084016105ce565b5090565b600063ffffffff821115610ed15760405162461bcd60e51b815260206004820152602660248201527f53616665436173743a2076616c756520646f65736e27742066697420696e203360448201526532206269747360d01b60648201526084016105ce565b6001600160a01b03838116600090815260096020526040808220548584168352912054610f6c9291821691168361193e565b505050565b600065ffffffffffff821115610ed15760405162461bcd60e51b815260206004820152602660248201527f53616665436173743a2076616c756520646f65736e27742066697420696e203460448201526538206269747360d01b60648201526084016105ce565b60006105f9828461231f565b6001600160a01b0383166110465760405162461bcd60e51b8152602060048201526024808201527f45524332303a20617070726f76652066726f6d20746865207a65726f206164646044820152637265737360e01b60648201526084016105ce565b6001600160a01b0382166110a75760405162461bcd60e51b815260206004820152602260248201527f45524332303a20617070726f766520746f20746865207a65726f206164647265604482015261737360f01b60648201526084016105ce565b6001600160a01b0383811660008181526001602090815260408083209487168084529482529182902085905590518481527f8c5be1e5ebec7d5bd14f71427d1e84f3dd0314c0f7b2291e5b200ac8c7c3b925910160405180910390a3505050565b60006111148484610ba8565b90506000198114610d8b578181101561116f5760405162461bcd60e51b815260206004820152601d60248201527f45524332303a20696e73756666696369656e7420616c6c6f77616e636500000060448201526064016105ce565b610d8b8484848403610fe4565b6001600160a01b0383166111e05760405162461bcd60e51b815260206004820152602560248201527f45524332303a207472616e736665722066726f6d20746865207a65726f206164604482015264647265737360d81b60648201526084016105ce565b6001600160a01b0382166112425760405162461bcd60e51b815260206004820152602360248201527f45524332303a207472616e7366657220746f20746865207a65726f206164647260448201526265737360e81b60648201526084016105ce565b6001600160a01b038316600090815260208190526040902054818110156112ba5760405162461bcd60e51b815260206004820152602660248201527f45524332303a207472616e7366657220616d6f756e7420657863656564732062604482015265616c616e636560d01b60648201526084016105ce565b6001600160a01b03848116600081815260208181526040808320878703905593871680835291849020805487019055925185815290927fddf252ad1be2c89b69c2b068fc378daa952ba7f163c4a11628f55a4df523b3ef910160405180910390a3610d8b848484611933565b6000306001600160a01b037f00000000000000000000000000000000000000000000000000000000000000001614801561137f57507f000000000000000000000000000000000000000000000000000000000000000046145b156113a957507f000000000000000000000000000000000000000000000000000000000000000090565b61054f604080517f8b73c3c69bb8fe3d512ecc4cf759cc79239f7b179b0ffacaa9a75d522b39400f60208201527f0000000000000000000000000000000000000000000000000000000000000000918101919091527f000000000000000000000000000000000000000000000000000000000000000060608201524660808201523060a082015260009060c00160405160208183030381529060405280519060200120905090565b8154600090818160058111156114ab57600061146c84611a7b565b611476908561231f565b600088815260209020909150869082015463ffffffff16111561149b578091506114a9565b6114a68160016121d2565b92505b505b808210156114f85760006114bf8383611b63565b600088815260209020909150869082015463ffffffff1611156114e4578091506114f2565b6114ef8160016121d2565b92505b506114ab565b8015611524576000868152602090208101600019015464010000000090046001600160e01b0316611527565b60005b6001600160e01b03169695505050505050565b6001600160a01b038281166000818152600960208181526040808420805485845282862054949093528787166001600160a01b03198416811790915590519190951694919391928592917f3134e8a2e6d97e929a7e54011ea5485d7d196dd5f0ba4d4ef95803e8e3fc257f9190a4610d8b82848361193e565b600c546001600160a01b031633146106d95760405162461bcd60e51b815260206004820181905260248201527f4f776e61626c653a2063616c6c6572206973206e6f7420746865206f776e657260448201526064016105ce565b600c80546001600160a01b038381166001600160a01b0319831681179093556040519116919082907f8be0079c531659141344cd1fd0a4f28419497f9722a3daafe3b4186f6b6457e090600090a35050565b606060ff831461167257610ce283611b7e565b81805461167e90612188565b80601f01602080910402602001604051908101604052809291908181526020018280546116aa90612188565b80156116f75780601f106116cc576101008083540402835291602001916116f7565b820191906000526020600020905b8154815290600101906020018083116116da57829003601f168201915b5050505050905061051b565b600061051b611710611326565b8360405161190160f01b8152600281019290925260228201526042902090565b600080600061174187878787611bbd565b9150915061174e81611c81565b5095945050505050565b6001600160a01b03811660009081526007602052604090208054600181018255905b50919050565b600080829050601f815111156117ab578260405163305a27a960e01b81526004016105ce9190611ee3565b80516117b682612332565b179392505050565b8254600090819081811561180b5760008781526020902082016000190160408051808201909152905463ffffffff8116825264010000000090046001600160e01b03166020820152611820565b60408051808201909152600080825260208201525b905080602001516001600160e01b0316935061184084868863ffffffff16565b925060008211801561186a57506118556107e9565b65ffffffffffff16816000015163ffffffff16145b156118af5761187883610e68565b60008881526020902083016000190180546001600160e01b03929092166401000000000263ffffffff909216919091179055611929565b8660405180604001604052806118d36118c66107e9565b65ffffffffffff16610ed5565b63ffffffff1681526020016118e786610e68565b6001600160e01b0390811690915282546001810184556000938452602093849020835194909301519091166401000000000263ffffffff909316929092179101555b5050935093915050565b610f6c838383610f3a565b816001600160a01b0316836001600160a01b0316141580156119605750600081115b15610f6c576001600160a01b038316156119ee576001600160a01b0383166000908152600a60205260408120819061199b90610fd8856117be565b91509150846001600160a01b03167fdec2bacdd2f05b59de34da9b523dff8be42e5e38e818c82fdb0bae774387a72483836040516119e3929190918252602082015260400190565b60405180910390a250505b6001600160a01b03821615610f6c576001600160a01b0382166000908152600a602052604081208190611a2490610e5c856117be565b91509150836001600160a01b03167fdec2bacdd2f05b59de34da9b523dff8be42e5e38e818c82fdb0bae774387a7248383604051611a6c929190918252602082015260400190565b60405180910390a25050505050565b600081600003611a8d57506000919050565b60006001611a9a84611dcb565b901c6001901b90506001818481611ab357611ab3612356565b048201901c90506001818481611acb57611acb612356565b048201901c90506001818481611ae357611ae3612356565b048201901c90506001818481611afb57611afb612356565b048201901c90506001818481611b1357611b13612356565b048201901c90506001818481611b2b57611b2b612356565b048201901c90506001818481611b4357611b43612356565b048201901c90506105f981828581611b5d57611b5d612356565b04611e5f565b6000611b72600284841861236c565b6105f9908484166121d2565b60606000611b8b83611e75565b604080516020808252818301909252919250600091906020820181803683375050509182525060208101929092525090565b6000807f7fffffffffffffffffffffffffffffff5d576e7357a4501ddfe92f46681b20a0831115611bf45750600090506003611c78565b6040805160008082526020820180845289905260ff881692820192909252606081018690526080810185905260019060a0016020604051602081039080840390855afa158015611c48573d6000803e3d6000fd5b5050604051601f1901519150506001600160a01b038116611c7157600060019250925050611c78565b9150600090505b94509492505050565b6000816004811115611c9557611c9561238e565b03611c9d5750565b6001816004811115611cb157611cb161238e565b03611cfe5760405162461bcd60e51b815260206004820152601860248201527f45434453413a20696e76616c6964207369676e6174757265000000000000000060448201526064016105ce565b6002816004811115611d1257611d1261238e565b03611d5f5760405162461bcd60e51b815260206004820152601f60248201527f45434453413a20696e76616c6964207369676e6174757265206c656e6774680060448201526064016105ce565b6003816004811115611d7357611d7361238e565b036106a25760405162461bcd60e51b815260206004820152602260248201527f45434453413a20696e76616c6964207369676e6174757265202773272076616c604482015261756560f01b60648201526084016105ce565b600080608083901c15611de057608092831c92015b604083901c15611df257604092831c92015b602083901c15611e0457602092831c92015b601083901c15611e1657601092831c92015b600883901c15611e2857600892831c92015b600483901c15611e3a57600492831c92015b600283901c15611e4c57600292831c92015b600183901c1561051b5760010192915050565b6000818310611e6e57816105f9565b5090919050565b600060ff8216601f81111561051b57604051632cd44ac360e21b815260040160405180910390fd5b6000815180845260005b81811015611ec357602081850181015186830182015201611ea7565b506000602082860101526020601f19601f83011685010191505092915050565b6020815260006105f96020830184611e9d565b80356001600160a01b0381168114611f0d57600080fd5b919050565b60008060408385031215611f2557600080fd5b611f2e83611ef6565b946020939093013593505050565b600080600060608486031215611f5157600080fd5b611f5a84611ef6565b9250611f6860208501611ef6565b9150604084013590509250925092565b600060208284031215611f8a57600080fd5b6105f982611ef6565b60ff60f81b881681526000602060e081840152611fb360e084018a611e9d565b8381036040850152611fc5818a611e9d565b606085018990526001600160a01b038816608086015260a0850187905284810360c0860152855180825283870192509083019060005b8181101561201757835183529284019291840191600101611ffb565b50909c9b505050505050505050505050565b60006020828403121561203b57600080fd5b5035919050565b803560ff81168114611f0d57600080fd5b60008060008060008060c0878903121561206c57600080fd5b61207587611ef6565b9550602087013594506040870135935061209160608801612042565b92506080870135915060a087013590509295509295509295565b600080600080600080600060e0888a0312156120c657600080fd5b6120cf88611ef6565b96506120dd60208901611ef6565b955060408801359450606088013593506120f960808901612042565b925060a0880135915060c0880135905092959891949750929550565b6000806040838503121561212857600080fd5b61213183611ef6565b915061213f60208401611ef6565b90509250929050565b6000806040838503121561215b57600080fd5b61216483611ef6565b9150602083013563ffffffff8116811461217d57600080fd5b809150509250929050565b600181811c9082168061219c57607f821691505b60208210810361177a57634e487b7160e01b600052602260045260246000fd5b634e487b7160e01b600052601160045260246000fd5b8082018082111561051b5761051b6121bc565b634e487b7160e01b600052604160045260246000fd5b634e487b7160e01b600052603260045260246000fd5b601f821115610f6c57600081815260208120601f850160051c810160208610156122385750805b601f850160051c820191505b8181101561225757828155600101612244565b505050505050565b815167ffffffffffffffff811115612279576122796121e5565b61228d816122878454612188565b84612211565b602080601f8311600181146122c257600084156122aa5750858301515b600019600386901b1c1916600185901b178555612257565b600085815260208120601f198616915b828110156122f1578886015182559484019460019091019084016122d2565b508582101561230f5787850151600019600388901b60f8161c191681555b5050505050600190811b01905550565b8181038181111561051b5761051b6121bc565b8051602080830151919081101561177a5760001960209190910360031b1b16919050565b634e487b7160e01b600052601260045260246000fd5b60008261238957634e487b7160e01b600052601260045260246000fd5b500490565b634e487b7160e01b600052602160045260246000fdfea26469706673582212200c8a50a4a2db633d97def76a3e39d671b268446a6b904a3e18d80c8c2ea9a20364736f6c63430008120033dec2bacdd2f05b59de34da9b523dff8be42e5e38e818c82fdb0bae774387a724",
  "linkReferences": {},
  "deployedLinkReferences": {}
}